:020000040800F2
:10000000382E0020197E0008EF7B0008F17B0008E5
:10001000F57B0008F97B0008FD7B0008000000006C
:10002000000000000000000000000000017C00084B
:10003000037C000800000000057C0008077C000825
:10004000337E0008337E0008337E0008337E0008CC
:10005000337E0008337E0008337E0008337E0008BC
:10006000337E0008337E0008337E0008337E0008AC
:10007000337E0008337E0008337E0008337E00089C
:10008000337E0008337E0008337E0008337E00088C
:10009000337E0008337E0008337E0008337E00087C
:1000A000337E0008337E0008337E0008337E00086C
:1000B0002D260008337E0008337E0008337E0008BA
:1000C000337E0008337E0008337E0008337E00084C
:1000D000337E0008337E0008337E0008337E00083C
:1000E000337E0008337E0008337E0008337E00082C
:1000F000337E0008337E0008337E0008337E00081C
:10010000337E0008337E0008337E0008337E00080B
:10011000337E0008337E0008337E0008337E0008FB
:10012000337E0008337E0008337E0008337E0008EB
:10013000337E0008337E0008337E0008337E0008DB
:10014000337E0008337E0008337E0008337E0008CB
:10015000337E0008337E0008337E0008337E0008BB
:10016000337E0008337E0008337E0008337E0008AB
:10017000337E000835260008337E0008337E0008F1
:10018000337E0008337E0008DFF80CD007F09EFEB7
:10019000004800479D010008382E002007F0A2FD0E
:1001A00000F03FF800BFFEE700BF00BF00BFBFF395
:1001B0004F8F00BF00BF00BFF848006800F4E06048
:1001C000F7490843001DF549086000BF00BF00BFA4
:1001D000BFF34F8F00BF00BF00BF00E000BFFDE7CF
:1001E00038B5012000F024FA72B67C2006F0B0FB8E
:1001F00090B106F091FEEB480068EB490840B0F181
:10020000805F09D1E74840680090009CE549086894
:1002100080F3088800BFA047002000F009FA62B60A
:1002200038BD08B507F00AFEFFF7DAFFDF48E04BFC
:10023000E04A00210090E04802F030FA0020DF4957
:100240000870DF490860DF490870DF49086034E062
:10025000D849D94802F057FC0421DC4806F0F3FAEB
:10026000C0F10100C4B222460421D84806F0FCFACD
:10027000D448007888B10821D54806F0F1FA042165
:10028000D34806F0EDFA1021D04806F0EBFA012031
:1002900000F0CEF972B6FFF787FFCB480068CD4972
:1002A000884205D3012000F0C3F972B6FFF77CFF46
:1002B000C5480068401CC4490860C9E701460020E1
:1002C000C54A914203D2B1F1006F00D350E0C34A56
:1002D000914204D2C04A914201D3082048E0C04A6A
:1002E000914204D2BD4A914201D3102040E0AD4A70
:1002F000914204D2BA4A914201D3182038E0B94A57
:10030000914204D2A74A914201D3202030E0B64A5C
:10031000914204D2B34A914201D3282028E0B34A43
:10032000914204D2B04A914201D3302020E0B04A39
:10033000914204D2AD4A914201D3382018E0AD4A2F
:10034000914204D2AA4A914201D3402010E0AA4A25
:10035000914204D2A74A914201D3482008E0A74A1B
:10036000914204D2A44A914201D3502000E0582087
:1003700070472DE9FC4106460C4615463746640891
:1003800005F060FEF32006F05EF9A846002001901B
:1003900012E0019838F810004FF6FF71884208D03B
:1003A0002846FFF78BFF00900121009805F09EFE84
:1003B00005E00198401C01900198A042E9D300BFDC
:1003C000002001900BE0019837F81010284605F046
:1003D000CFFF092800D1AD1C0198401C0190019865
:1003E000A042F0D305F03BFEBDE8FC8110B5002033
:1003F00075490860714800780B2872D2DFE800F078
:1004000006111C2735535E728289920000227CA15E
:100410007C4801F0E6F87C490870012067490870C3
:1004200085E07948007818B10A206449087002E034
:100430000220624908707AE0012274A1774801F035
:10044000F8F87149087003205C4908706FE06E4845
:10045000007818B102205949087005E00420574976
:10046000087000206E49086061E00020544908606F
:100470006B480168694801F0F1FB514B4FF4807201
:100480006849664801F0C4F95F4908704C48006843
:10049000B0F5807F03D105204849087002E00720AD
:1004A0004649087043E05848007818B10020434995
:1004B000087002E006204149087038E0584800689A
:1004C00038494218C9145748FFF753FF5448006889
:1004D0003B490968084452490860042037490870BC
:1004E00025E023E04E4800682E4942183448016850
:1004F0004C48FFF73EFF00204949086008202F497B
:10050000087014E0454801F098FB09202B49087059
:100510000DE000223AA1104601F063F80A202749B5
:10052000087004E0FF202749087000E000BF00BF0A
:1005300010BD0EB50246FF200290019012E012F8A5
:10054000010B9DF80430584000903748BDF800304A
:10055000C05C9DF80830584001903448BDF8003028
:10056000C05C0290081EA1F10101E8D19DF80400D1
:100570009DF8083040EA03200EBD78B503461446C6
:100580000025009506E0009D655D009E9D55009D3F
:100590006D1C0095009D8D42F5D378BD0CED00E0FB
:1005A0000000FA05000001080000FE1F2C000020DA
:1005B000B0000020EC1A00204015002010000020A0
:1005C0000C00002000000020040000200010024069
:1005D000000C0240FFFF0F000040000800800008F0
:1005E00000C000080000020800000408000006081F
:1005F0000000080800000A0800000C0800000E08AF
:10060000303A0000E800002008000020303A48524C
:100610004D432D47314B2E62696E000018030020B8
:1006200014000020400500200E7F00080E80000806
:1006300080F3108870470000014648780A7842EA43
:10064000002070470146C8788A7842EA00204A783C
:1006500042EA00200A7842EA0020704700F8011BB5
:10066000091200F8011B704700F8011B090A00F885
:10067000011B090A00F8011B090A00F8011B704759
:1006800030B503460C463AB100BF14F8015B03F8DD
:10069000015B551E2A1EF8D130BD10B5034600BFC0
:1006A00003F8011B541E221EFAD110BDF0B50346FB
:1006B0001D460C46002000BF15F8017B14F801CB45
:1006C000A7EB0C00561E321E01D00028F4D0F0BD5E
:1006D000024600E0521C107810B110788842F9D11F
:1006E00010787047014609B1002070470020FCE7F0
:1006F000014609B1002070470020FCE770B50446B0
:100700000025E078E8B16078012304F13001E26A65
:1007100003F064FBA0B90020E070216AE06A401A8F
:10072000A16988420DD2A07802280AD1A369E16AA2
:10073000CA186078012304F1300103F04FFB00E098
:100740000125284670BD70B504460D460026E06AB6
:10075000A84210D02046FFF7D1FF06465EB9607868
:1007600001232A4604F1300103F008FB10B14FF0D9
:10077000FF350126E562304670BD70B5044620465F
:10078000FFF7BCFF0546002D38D1207803282ED175
:10079000207901282BD14202002104F13000FFF71B
:1007A0007CFF4AF6552104F22E20FFF757FFF84947
:1007B00004F13000FFF758FFF64904F50570FFF724
:1007C00053FF04F506702169FFF74EFF04F507702B
:1007D000E168FFF749FFE069401CE06260780123AF
:1007E00004F13001E26A03F0F9FA00202071607828
:1007F0000022114601F0BEFD00B10125284670BD62
:100800000246891E5069801E884201D80020704728
:100810005389906A03FB0100F9E72DE9F04781460F
:100820000C46D9F80050022C02D36869A04202D8C5
:100830004FF001085EE04FF0FF382878012804D01F
:1008400002282CD0032851D13CE0264606EB560660
:10085000286A00EB56212846FFF775FF00B148E0F3
:100860003046761CC0F3080105F13000475C286A69
:1008700000EB56212846FFF766FF00B139E0C6F3CA
:10088000080105F13000405C47EA002704F0010050
:1008900008B1380901E0C7F30B00804629E0286A57
:1008A00000EB14212846FFF74EFF00B121E040F293
:1008B000FF1101EA440205F130015018FFF7BCFEB8
:1008C000804616E0286A00EBD4112846FFF73BFF6C
:1008D00000B10EE040F2FF1101EA840205F130019F
:1008E0005018FFF7AFFE20F0704802E04FF001080B
:1008F00000BF00BF4046BDE8F0872DE9F047044641
:100900000D4616464FF00209022D74D36069A842C5
:1009100071D92078012804D0022849D003280DD1AC
:100920005EE02F4607EB5707206A00EB5721204671
:10093000FFF709FF8146B9F1000F00D075E0384696
:100940007F1CC0F3080104F1300001EB000805F042
:10095000010028B1F1B298F8000061F31F1000E027
:10096000304688F800000120E070206A00EB572133
:100970002046FFF7E8FE8146B9F1000F00D054E0B1
:10098000C7F3080104F1300001EB000805F0010095
:1009900010B1C6F3071006E098F8000000F0F00070
:1009A000C6F30321084388F800000120E0703CE012
:1009B000206A00EB15212046FFF7C5FE8146B9F1FC
:1009C000000F00D031E0B1B240F2FF1202EA45035D
:1009D00004F130029818FFF741FE0120E07024E096
:1009E000206A00EBD5112046FFF7ADFE8146B9F134
:1009F000000F01D019E019E040F2FF1101EA850271
:100A000004F130015018FFF71DFE66F31B00064687
:100A100040F2FF1101EA850204F13001501831461D
:100A2000FFF722FE0120E07000BF00BF4846BDE88E
:100A3000F0872DE9F04781460E4617464FF0000833
:100A4000D9F80040022E02D36069B04202D80220D9
:100A5000BDE8F08767B100BF4FF0FF32394620464E
:100A6000FFF74BFF8046B8F1000F01D04046EFE79B
:100A700000BF31464846FFF7D0FE054605B922E0E3
:100A8000012D01D10220E3E7681C08B90120DFE74E
:100A9000002231462046FFF730FF8046B8F1000FB4
:100AA00001D04046D4E7D4E90410801E814206D22A
:100AB0002069401C2061207940F0010020712E4601
:100AC0006069B042D5D800BF0020C1E72DE9F047EA
:100AD00082468846DAF80040B8F1000F06D1E76890
:100AE00017B16069B84215D8012713E04146504656
:100AF000FFF793FE0546022D02D20120BDE8F087E4
:100B0000681C08B92846F9E76069A84201D9284657
:100B1000F4E74746206908B90020EFE7002647457B
:100B200018D17E1C6069B04200D80226314650467A
:100B3000FFF773FE0546012D01D0681C08B9284651
:100B4000DCE73DB1E568022D03D36069A84200D916
:100B50002F460026DEB93E4600BF761C6069B042D3
:100B600004D80226BE4201D90020C7E731465046CC
:100B7000FFF753FE054605B90EE0012D01D0681CB4
:100B800008B92846BAE7BE42E7D10020B6E704E03C
:100B9000525261417272416100BF4FF0FF323146E3
:100BA0002046FFF7AAFE8146B9F1000F08D1B8F13F
:100BB000000F05D0324641462046FFF79EFE814693
:100BC000B9F1000F0DD1E660D4E90410801E814216
:100BD00002D82069401E2061207940F00100207178
:100BE00007E0B9F1010F02D14FF0FF3000E0012022
:100BF0000646304682E72DE9F047044689462046FE
:100C0000FFF77CFD10B10120BDE8F0874946204682
:100C1000FFF7F6FD0646E6624FF40072002104F18C
:100C20003000FFF73AFD04F130080127002500E00D
:100C30003D446089A84207D9721960783B46414615
:100C400003F0CCF80028F3D06089A84201D001203D
:100C5000DAE70020D8E72DE9F04104460D46266882
:100C6000B5F5001F02D205F01F0010B10220BDE84B
:100C7000F0812561A7681FB93078032800DB776A07
:100C800047B93089B0EB551F01D80220EFE7706AF1
:100C9000A0611CE070894FEA402811E039462046E7
:100CA000FFF7BBFD0746781C08B90120DFE7022FDC
:100CB00002D37069B84201D80220D8E7A5EB080535
:100CC0004545EBD239463046FFF79AFDA061676192
:100CD000A06908B90220CAE7A06900EB5520A0610D
:100CE000C5F3080106F130000844E0610020BEE7CA
:100CF0002DE9F041044688462768206900F1200666
:100D0000A06910B1B6F5001F02D30420BDE8F08140
:100D1000C6F30800002845D1A069401CA0616069A5
:100D200038B93889B0EB561F3CD80020A0610420A8
:100D3000ECE77889401E00EA562098BB204661699E
:100D4000FFF76BFD0546012D01D80220DEE7681C88
:100D500008B90120DAE77869A8421DD8B8F1000F78
:100D600003D10020A0610420D0E720466169FFF78D
:100D7000ADFE05460DB90720C8E7012D01D10220BF
:100D8000C4E7681C08B90120C0E729463846FFF7C8
:100D900032FF08B10120B9E7656129463846FFF7FF
:100DA0002FFDA0612661C6F3080107F13000084459
:100DB000E0610020AAE72DE9F04104460E46D4F890
:100DC000008000212046FFF746FF0546EDB90027C9
:100DD00000BF4046A169FFF7B6FC054605B113E028
:100DE000E0690078E52802D0E069007820B9781C35
:100DF0000746B04201D107E0002701212046FFF756
:100E000077FF0546002DE4D000BF042D00D1072553
:100E10002846BDE8F08170B505460C4604F11A007D
:100E2000FFF70AFC06462878032805D104F11400D0
:100E3000FFF702FC46EA0046304670BD70B5064634
:100E40000C461546A9B204F11A00FFF707FC3078EA
:100E5000032804D1290C04F11400FFF7FFFB70BD37
:100E60002DE9F047044688460425D4F8009027E091
:100E70004846A169FFF767FC054605B123E0E06934
:100E800006780EB904251EE0E069C07A00F03F073D
:100E9000A771E52E0DD02E2E0BD00F2F09D027F0E5
:100EA0002000082801D1012000E00020404500D1A9
:100EB00009E000212046FFF71BFF054605B102E0CF
:100EC000A0690028D4D100BF0DB10020A061284640
:100ED000BDE8F0872DE9F04104462768002120464F
:100EE000FFF7B9FE054615B12846BDE8F08100BF01
:100EF0003846A169FFF727FC054605B11DE0E0690A
:100F000006780EB9042518E0E069C07A00F03F00C9
:100F1000A071E069C07A00F0080038B90B2204F132
:100F20002001E069FFF7C2FB00B906E0002120467E
:100F3000FFF7DEFE0546002DDAD000BF2846D4E7D5
:100F400070B50446266801212046FFF734FF0546A8
:100F500095B93046A169FFF7F6FB054665B9202231
:100F60000021E069FFF799FB0B2204F12001E06901
:100F7000FFF786FB0120F070284670BD70B504466F
:100F800026683046A169FFF7DEFB054625B9E52056
:100F9000E16908700120F070284670BD2DE9F04726
:100FA00005460C4600206072A86908B9BDE8F087C4
:100FB000002637461CE03046761CEA6912F800909D
:100FC000B9F1200F00D113E0B9F1050F01D14FF0B5
:100FD000E509092E05D12E2238467F1C04F10901AE
:100FE0000A5438467F1C04F1090101F8009000BF43
:100FF0000B2EE0D3002104F10900C155E869C07A45
:101000002072E96901F11C00FFF71CFB2060E9690F
:1010100001F11600FFF716FB8046A4F806804FEAA0
:101020001840A08000BFC1E72DE9F35F8946D9F8D9
:101030000080009800F120050B2220212846FFF7B0
:101040002CFB0020074606464FF0080B00BF304639
:10105000761C18F80040202C00DC50E02F2C01D02A
:101060005C2C0AD100E0761C18F806002F28FAD074
:1010700018F806005C28F6D041E02E2C01D05F4520
:101080000BD3BBF10B0F01D02E2C02D00620BDE8F4
:10109000FC9F08274FF00B0BD9E7802C03DBA4F152
:1010A0008000F8490C5C2046FFF71CFBA8B13046D5
:1010B000761C18F800A05046FFF71AFB18B1ABF1E8
:1010C0000100B84201D80620E1E738467F1C2C54C5
:1010D00038467F1C05F800A010E02146EAA0FFF783
:1010E000F7FA08B10620D2E7612C04DB7A2C02DC87
:1010F000A4F12000C4B238467F1C2C54A7E700BFDF
:1011000008EB0600C9F800000FB90620BFE72878F1
:10111000E52801D105202870202C01DC042000E006
:101120000020E8720020B2E72DE9F3410446276869
:1011300002E00198401C0190019800782F28F8D017
:10114000019800785C28F4D00020A0600198007815
:10115000202808D280212B20015500212046FFF7AE
:101160007AFD05462CE000BF01A92046FFF75CFF91
:10117000054605B123E02046FFF7ACFE05462B20CF
:10118000065D3DB1042D04D100BF06F0040000B996
:10119000052514E006F0040000B110E0A07900F08D
:1011A000100008B905250AE0208AC0F3080207F1FB
:1011B000300011183846FFF72EFEA060D4E700BFBC
:1011C0002846BDE8FC8130B502464FF0FF30156877
:1011D000F5B1116800E0491C0D78212D02D30D787E
:1011E0003A2DF8D10D783A2D11D1146814F8013B3D
:1011F000302B0DD3392B0BD88C4209D1A3F13005FC
:101200002B1E05D118464D1C2946156000E0002014
:1012100030BD70B504460D460020E070401EE0620F
:1012200029462046FFF78FFA08B1042070BD04F26A
:101230002E20FFF701FA4AF65521884201D00320FB
:10124000F4E794F83000E92807D094F83000EB2850
:1012500015D13220005D902811D103228EA104F116
:101260006600FFF723FA08B90020DFE705228BA10B
:1012700004F18200FFF71AFA08B90020D6E702202D
:10128000D4E72DE9F74F8AB000210B9801600A9846
:10129000FFF799FF08900898002803DA0B200DB09B
:1012A000BDE8F08F7F49089851F820400CB90C2018
:1012B000F5E70B9804600C9800F0FE000C90207885
:1012C00080B1607802F053FD00F0FF0A0AF00100DF
:1012D00040B90C9820B10AF0040008B10A20DEE7FA
:1012E0000020DCE70020207008986070607802F031
:1012F0002FFD00F0FF0A0AF0010008B10320CEE73D
:101300000C9820B10AF0040008B10A20C7E70027B2
:1013100039462046FFF77DFF0546022D01D02EDA23
:101320002DE0002614E04FF4DF7000EB061104F10D
:101330003000084409900998007920B109980830D4
:10134000FFF780F900E0002002A941F82600761C92
:10135000042EE8D3002606B1761E00BF02A850F87E
:10136000267027B139462046FFF753FF00E00320DF
:101370000546022D03DB701C06460428EED3042D1F
:1013800001D101208BE7022D01DB0D2087E704F15D
:101390003B00FFF751F9B0F5007F01D00D207EE74B
:1013A00004F14600FFF748F98046B8F1000F04D178
:1013B00004F15400FFF746F98046C4F81880402035
:1013C000005DA070A078012804D0A078022801D088
:1013D0000D2064E7A07808FB00F83D20005D6081E7
:1013E000608918B16089411E084008B10D2056E798
:1013F00004F14100FFF720F92081207A00F00F006E
:1014000008B10D204BE704F14300FFF715F98346BF
:10141000BBF1000F04D104F15000FFF713F983462C
:1014200004F13E00FFF708F90190019808B90D207A
:1014300035E701984044218900EB11100790079887
:10144000834501D20D202AE70798ABEB00006189A4
:10145000B0FBF1F9B9F1000F01D10D201FE7002514
:101460001148814500D803254FF6F570814500D815
:10147000022540F6F570814500D80125B5B90D204B
:101480000DE700000E810008222A2B2C3A3B3C3D40
:101490003E3F5B5D7C7F0000464154004641543333
:1014A0003200000018000020F5FFFF0F09F10200D4
:1014B0006061E76101983844206207983844A0626F
:1014C000032D13D104F15A00FFF7B6F808B10D202F
:1014D000E5E6208908B10D20E1E604F15C00FFF7A4
:1014E000B1F8606260698000069014E0208908B954
:1014F0000D20D4E6206A40446062022D02D160696A
:10150000400007E0207D00F00100616901EB41012E
:1015100000EB51000690A169069800F2FF10B1EBB4
:10152000502F01D20D20BAE64FF0FF302061E0606D
:1015300080202071032D2CD104F16000FFF77CF88E
:10154000012826D1791C2046FFF7FDF808BB0020B2
:10155000207104F22E20FFF76FF84AF655218842D9
:1015600017D104F13000FFF76DF8F649884210D129
:1015700004F50570FFF766F8F349884209D104F5D0
:101580000670FFF75FF8206104F50770FFF75AF85F
:10159000E0602570ED480088401C80B2EB4908806F
:1015A000E08000207BE670B504460D4609268CB12C
:1015B000206878B12068007860B1A0882168C98867
:1015C000884207D12168487802F0D1FB00F0010081
:1015D00000B900260EB9206800E0002028603046DF
:1015E00070BDF7B582B016460398019001A8FFF7C9
:1015F000EAFD0546002D02DA0B2005B0F0BDD44807
:1016000050F825400CB100202070029810B1002045
:1016100002990870CE49029841F825000EB90020C1
:10162000EBE7002202A903A8FFF72BFE0746384686
:10163000E3E72DE9F74F8EB0044616461CB90920A2
:1016400011B0BDE8F08F06F03F06324602A90FA8A0
:10165000FFF717FE0546002D7ED10298039003A8E0
:101660000F99FFF761FD05462DB99DF8370000F091
:10167000800000B1062506F01C0000284DD045B1C1
:10168000042D03D103A8FFF75BFC054646F00806CE
:101690000AE09DF8120000F0110008B1072503E0F0
:1016A00006F0040000B10825002D47D106F008001F
:1016B000002843D00A990298FFF7ADFB81460A99AA
:1016C00001F10E00A349FEF7CFFF20200A99C8724E
:1016D00000220A990298FFF7B1FB0A9901F11C0058
:1016E0000021FEF7C1FF01200299C870B9F1000F77
:1016F00024D00298C06A01900022494603A8FFF74F
:1017000098F90546D5B9DDE90110FFF71CF8054643
:10171000A9F101000299C86010E07DB99DF812009E
:1017200000F0100008B1042508E006F0020028B11E
:101730009DF8120000F0010000B107254DB906F038
:10174000080008B146F040060298C06A20620A9874
:101750006062002D57D100E047E00A990298FFF738
:101760005AFBA0600A9901F11C00FEF76BFFE060D4
:10177000029820600298C088A080267400206074BF
:10178000E06160614FF40072002104F12800FEF76F
:1017900084FF06F0200040B3E06830B3E068606189
:1017A000029840894FEA402AA768D4F80C800CE0E0
:1017B00039462046FFF731F80746012F00D80225A9
:1017C000781C00B90125A8EB0A080DB9D045EFD85F
:1017D000A76155B9C8F3080038B139460298FFF738
:1017E0000FF8B0F1000B01D102250CE00BEB5820F3
:1017F000E061E26902994878012304F1280102F0CE
:10180000BDFA00B101250DB100202060284617E780
:101810002DE9FF4F85B0044615469A46DDF818B00D
:101820000020CAF8000003A92046FFF7BCFE049080
:10183000049810B9607C049018B1049809B0BDE810
:10184000F08F207C00F0010008B90720F6E76169FD
:10185000E068401A01900198854200D9019DAAE0F4
:10186000A08AC0F30800002876D103984089401E62
:10187000616900EA5129B9F1000F17D1606910B907
:10188000A068029004E02046A169FEF7C6FF02901E
:101890000298022802D202206074CFE70298401C0E
:1018A00010B901206074C9E70298A061A16903988A
:1018B000FEF7A6FF064616B902206074BEE74E4446
:1018C0004FEA5528B8F1000F29D009EB0800039919
:1018D0004989884203D903984089A0EB09080399F4
:1018E000487843463246594602F048FA10B1012082
:1018F0006074A3E7207C00F0800068B1E069801B81
:10190000404509D2E169891B0BEB41204FF400727D
:1019100004F12801FEF7B4FE4FEA482741E0E069F0
:10192000B0422AD0207C00F08000D0B1E269039957
:101930004878012304F1280102F050FA68B101202F
:1019400060747BE752526141727241611C00002059
:10195000180000200000A14A10E0207C00F07F0069
:101960002074039948780123324604F1280102F0DB
:1019700005FA10B10120607460E7E661A08AC0F347
:101980000800C0F50077AF4200D92F46A08AC0F307
:10199000080204F1280011183A465846FEF770FE76
:1019A00000BFED1BDAF800003844CAF80000BB4461
:1019B000606938446061002D7FF452AF00203DE73C
:1019C0002DE9FF4F83B0044615469B4604980090CE
:1019D0000020CBF8000001A92046FFF7E4FD0290AB
:1019E000029810B9607C029018B1029807B0BDE867
:1019F000F08F207C00F0020008B90720F6E700BF56
:101A0000606928446169884202D26069C0F1FF358B
:101A1000BBE0A08AC0F30800002875D10198408976
:101A2000401E616900EA512ABAF1000F1ED16069B7
:101A300038B9A76857B900212046FFF747F807468D
:101A400004E02046A169FFF741F8074607B99FE087
:101A5000012F02D102206074C8E7781C10B9012060
:101A60006074C3E7A761A06800B9A760207C00F09C
:101A7000800078B1E26901994878012304F12801D6
:101A800002F0ACF910B101206074AFE7207C00F0E7
:101A90007F002074A1690198FEF7B2FE064616B9D0
:101AA00002206074A2E756444FEA5529B9F1000FAD
:101AB0002BD00AEB090001994989884203D9019882
:101AC0004089A0EB0A09019948784B4632460099B3
:101AD00002F084F910B10120607487E7E069801B8F
:101AE00048450ED2E069801B009A02EB40214FF47A
:101AF000007204F12800FEF7C3FD207C00F07F0097
:101B000020744FEA49282BE013E0E069B0420FD07F
:101B1000E168606988420BD2019948780123324616
:101B200004F1280102F02AF910B1012060745DE788
:101B3000E661A08AC0F30800C0F50078A84500D986
:101B4000A846A18AC1F3080204F1280150184246B0
:101B50000099FEF795FD207C40F08000207400BFC6
:101B6000A5EB0805DBF800004044CBF80000009826
:101B700040440090606940446061E1686069884267
:101B800001D9606900E0E068E060002D7FF441AFBA
:101B900000BF207C40F040002074002026E7F8B50C
:101BA000044669462046FFF7FEFC0646002E42D159
:101BB000207C00F0400000283DD0207C00F0800018
:101BC00070B1E26900994878012304F1280102F01C
:101BD00005F908B10120F8BD207C00F07F002074D9
:101BE000FE4F216A0098FEF7AEFD06461EBB656AF1
:101BF000E87A40F02000E8722946A2682068FFF7E2
:101C00001DF905F11C00E168FEF72EFD394605F1CE
:101C10001600FEF729FD002105F11200FEF71EFD5A
:101C200001200099C8700098FEF7A7FD0646207CA9
:101C300000F0BF0020743046CDE738B50546284691
:101C4000FFF7ADFF04463CB969462846FFF7ABFCF9
:101C500004460CB900202860204638BD2DE9F84F15
:101C600004460E4669462046FFF79DFC8246BAF1BF
:101C7000000F01D194F811A0BAF1000F02D0504624
:101C8000BDE8F88FE068B04204D2207C00F002008A
:101C900000B9E668D4F814904FF00008C4F8148036
:101CA000002E68D0009840894702B9F1000F11D08A
:101CB000701EB0FBF7F1A9F10100B0FBF7F0814213
:101CC00008D3A9F10100791E884360616069361A62
:101CD000A56912E0A5687DB900212046FEF7F6FE51
:101CE0000546012D02D102206074C9E7681C10B9B5
:101CF00001206074C4E7A560A561002D3BD024E0FD
:101D0000F61B606938446061207C00F0020040B13D
:101D100000BF29462046FEF7D9FE054635B9002604
:101D200015E029462046FEF778FD0546681C10B9E7
:101D300001206074A4E7012D03D900984069A842EE
:101D400002D8022060749BE7A561BE42D8D800BFCC
:101D5000606930446061C6F3080060B129460098AC
:101D6000FEF74EFD8046B8F1000F02D102206074EC
:101D700086E708EB5628E1686069884205D9606902
:101D8000E060207C40F040002074A08AC0F308008E
:101D900020B3E069404521D0207C00F0800078B17C
:101DA000E26900994878012304F1280102F016F84D
:101DB00010B10120607463E7207C00F07F00207484
:101DC000009948780123424604F1280101F0D6FF2A
:101DD00010B10120607453E7C4F81C8050464FE7EF
:101DE00033B581B004460CB909203EBD00226946D6
:101DF00002A8FFF746FA05461DBB00982060204662
:101E00000299FFF791F90546C5B92B20005D00F056
:101E1000800050B9A07900F0100028B1E169009865
:101E2000FEF7F9FFA06000E005253DB90098C088E5
:101E3000A08000212046FEF70EFF0546042D00D1AC
:101E400005250DB1002020602846CEE738B50446B0
:101E500069462046FFF7A7FB05460DB90020206024
:101E6000284638BDF8B506460D4669463046FFF7A8
:101E70009AFB0446DCB92DB900213046FEF7EBFE93
:101E8000044614E000213046FEF7EAFF0446042C25
:101E900000D100245CB929463046FFF77FF80021C5
:101EA0003046FEF725FF0446042C00D100242046CE
:101EB000F8BD33B58BB00D46002269460BA8FFF77D
:101EC000E0F904468CB968460B99FFF72DF90446F2
:101ED0005CB99DF82B0000F0800008B1062404E0F6
:101EE0001DB129466846FFF759F820460DB030BDB0
:101EF0002DE9F74F86B088469246002205A906A82C
:101F0000FFF7BFF98146B9F1000F6BD10598CAF808
:101F100000000598D0E90410801E814204D805987D
:101F20000069C8F800005DE00025059800780128E8
:101F30001BD102260598019000BF314601A8FEF78B
:101F40006CFC0746781C10B94FF001090CE0012F1A
:101F500002D14FF0020907E007B96D1C701C06465C
:101F6000059949698842E8D32FE0059846690598A4
:101F7000D0F820B0002400BF54B959460BF1010B32
:101F80000598FEF7E0FB8146B9F1000F00D01BE099
:101F900005980078022808D1059930310819FEF714
:101FA0004BFB00B96D1CA41C09E0059930310819E0
:101FB000FEF748FB20F0704000B96D1C241DC4F3EF
:101FC0000804701E061ED7D100BFC8F8005005983F
:101FD00005610598007940F0010001E00000A14A88
:101FE00005990871484609B0BDE8F08FF8B5044678
:101FF00069462046FFF7D7FA054615B9607C051EED
:1020000001D02846F8BD207C00F0020008B9072066
:10201000F8E7E168606988423FD2606940B9002210
:102020002046A168FEF705FD05460020A06016E0E9
:102030002046A169FEF7F1FB06460025701C00B999
:102040000125012E00D102254DB900984069B0420A
:1020500005D931462046A269FEF7EBFC05466069CA
:10206000E060207C40F04000207495B9207C00F0B6
:10207000800070B1E26900994878012304F12801D9
:1020800001F0ACFE08B1012503E0207C00F07F00E8
:10209000207415B165742846B4E72846B2E731B517
:1020A00098B00025022201A918A8FFF7EAF8044613
:1020B000002C46D101980D900DA81899FFF734F81F
:1020C000044600BF002C3CD19DF85F0000F080006A
:1020D00008B1062405E09DF83A0000F0010000B1C7
:1020E0000724E4B914990198FEF795FE05469DF87A
:1020F0003A0000F0100090B1019802900495002180
:1021000002A8FEF7A8FD04464CB9002102A8FEF77C
:10211000A7FE044604B90724042C00D1002484B986
:102120000DA8FEF72BFF044634B92DB10022294635
:102130000DA8FEF77EFC04461CB90198FEF71DFBB6
:102140000446204619B030BD2DE9F1418DB0022280
:1021500001A90DA8FFF795F80546002D76D1019845
:10216000029002A80D99FEF7DFFF054605B9082584
:1021700000BF042D6AD1002102A8FEF7A7FC064685
:102180000198408940020590002506B90725012ED7
:1021900000D10225701C00B901251DB90198FEF778
:1021A000ADFA0546DFF8C8817DBB31460198FEF7E0
:1021B00022FD05464DBB00BF019800F130040B2203
:1021C00020212046FEF769FA2E2020701020E072B0
:1021D000414604F11600FEF747FA324621460198BF
:1021E000FEF72CFE2022214604F12000FEF748FADB
:1021F0002E2084F82100049F3A4604F12001019822
:10220000FEF71CFE01200199C8701DB902A8FEF757
:1022100097FE0546ADB9099C414604F11600FEF74C
:1022200023FA324621460198FEF708FE1020E0729C
:1022300001200199C8701DB90198FEF79EFA054664
:1022400004E00022314602A8FEF7F3FB28460EB058
:10225000BDE8F081F3B59FB020A8FEF7B4FF0222DD
:1022600008A91FA8FFF70DF80446002C7CD1089898
:10227000149014A81F99FEF757FF04462CB99DF837
:102280007B0000F0A00000B10624002C6CD12022BD
:1022900068461B99FEF7F4F92C2214A909A8FEF749
:1022A000EFF909A82099FEF73FFF04465CB916999B
:1022B0000B98884205D118990D98884201D10420C5
:1022C00000E008200446042C44D109A8FEF738FE9B
:1022D0000446002C3ED1109D13220DF10D0105F195
:1022E0000D00FEF7CDF99DF80B00E872E87A00F0DA
:1022F000100018B9E87A40F02000E872012008992F
:10230000C870E87A00F0100020B30B991698884244
:1023100020D029460898FEF77EFD074639460898E2
:10232000FEF76EFA06460EB9022413E0314608980D
:10233000FEF709FA0446089800F1500554B9687888
:102340002E2807D129460B9A0898FEF777FD012021
:102350000899C87044B914A8FEF710FE04461CB9C9
:102360000898FEF70AFA0446204621B0F0BD0000A6
:102370000000A14A10B503460C46022B01D10846C5
:1023800010BD0420FCE70020704700207047034682
:1023900000207047034600207047000008B5002168
:1023A0004FF0006003F0DAFD4FF4A06003F09CFDF5
:1023B0001C208DF8000001208DF8010000208DF810
:1023C000020001208DF80300684603F092FD012110
:1023D000084604F0B0FC08BD1CB5044601210220EB
:1023E00004F060FC4FF44040009003208DF805009D
:1023F00002208DF8040069464D4804F0B5F90C221E
:102400000E214B4804F03BFA0C220F21484804F0FF
:1024100036FA0121480704F045FCFFF7BFFF1CBD59
:1024200038B504464FF4A06003F05EFD4D208DF8F2
:10243000000002208DF8010000208DF8020001202C
:102440008DF80300684603F054FD38BD70477047AF
:102450003EB5044600214FF0804004F0ADFE00225E
:102460000121880705F0C0FA022C02D10B2001904F
:1024700004E0012C02D142F6DF6001900520ADF8A6
:1024800000000020ADF80800ADF8020069464FF0EA
:10249000804004F008FE0121880705F0CDFA0121F3
:1024A000880704F06BFE01221146900705F09CFAA4
:1024B0000121880704F080FE3EBD70B505460C463C
:1024C0001C4805602046FFF7C3FF00BF194800689D
:1024D0000028FBD100214FF0804004F06DFE70BD5C
:1024E00010B5044602212046FFF7E7FF10BD10B5E6
:1024F000044601212046FFF7E0FF10BD10B5012181
:10250000880705F088FA88B10121880705F094FA58
:102510000848006828B107480068401E054908605F
:1025200004E000214FF0804004F046FE10BD0000A2
:1025300000040240240000203948007810B901202E
:10254000374908707047704770477047704710B13F
:10255000012800D000BF70477047704710B5034690
:1025600008464479082C00D000BF10BD7047704762
:10257000704770477047002001207047704710B5C2
:10258000FDF734FF002010BDF0B595B007460C46AE
:10259000394604A8FFF724FC0546002D3CD135E060
:1025A0000FA904A8FFF75EFC054615B99DF8450084
:1025B00000B930E09DF845002E2800D126E00DF14D
:1025C00045063146684605F077FC16480078401C01
:1025D0001449087008460078092807DD00200870B3
:1025E00000BF114802F014FD0028FAD1012C00D0E0
:1025F00000BF9DF8440000F03F00102805D1012CD9
:1026000003D102213046FFF7BFFF00BF064802F0AA
:10261000FFFC0028C4D100BF284615B0F0BD7047AC
:1026200074000020290000204015002010B5FFF79D
:1026300065FF10BD10B5024803F0FFFB10BD0000A0
:102640004015002001460122C1F8102300207047E8
:1026500001460022C1F810230020704701460020E7
:10266000704770B505460C46002020706070A07061
:102670000120E070012121774021A171002084F820
:1026800020000121212001552179284600F0B3FBCB
:102690006179284600F0AFFB002070BD2DE9F041C4
:1026A00006460F4614461D46DDF818803046FFF7F3
:1026B00093FE0020FFF7CBFE21463046FFF7D1FF07
:1026C000E567C4F880803946304602F060FCD4F8F3
:1026D0008010086880473046FFF7A2FEBDE8F08111
:1026E0002DE9F04106460C464FF000080025002178
:1026F000A174207F0C2876D2DFE800F0FD060F3DA4
:10270000466576919AC0D7ED627904F1140130469E
:1027100000F0CCFB02212177EEE06179304602F037
:1027200080FC0546012D1FD1207D00F08007608BC5
:1027300058B141F28830FE490880802F02D1032130
:1027400021770CE00521217709E03220F849088043
:10275000802F02D10921217701E00721217730461E
:1027600002F05AFC208205E0032D03D10B212177D2
:102770000521A174C0E02379A2893046A16800F048
:10278000EDFB04212177B7E02179304602F049FCC6
:102790000546012D01D109212177042D02D1607850
:1027A00020700FE0032D02D10B2121770AE0304683
:1027B00002F032FC218A401ADD490988884201D999
:1027C0000B21217798E00121627906F56B7000EB0F
:1027D000421041766379A2893046A16800F087FBF8
:1027E0000621217788E086E06179304602F019FC05
:1027F0000546012D02D1072121770FE0042D04D1D8
:10280000607820700C21217708E0022D02D105218B
:10281000217703E0032D01D10B2121776CE023798F
:1028200000221146304600F099FB0821217763E031
:102830002179304602F0F5FB0546012D04D1607880
:1028400020700D21217718E0032D02D10B21217773
:1028500013E0304602F0E0FB218A401AB4490988AF
:10286000884202D90B21217707E0042D05D1607839
:1028700020700421A1744FF003083DE0617906F552
:102880006B7000EB4110407E80F00101627906F52B
:102890006B7000EB4210417663790022114630469E
:1028A00000F025FB0A21217726E06179304602F00D
:1028B000B8FB0546012D04D1607820700D212177E9
:1028C00008E0022D02D10921217703E0032D01D177
:1028D0000B21217710E0A07B401CC1B2A17302291B
:1028E00002DC0121217705E00821A17460782070C5
:1028F0004FF0020800E000BF00BF4046BDE8F08195
:1029000070B504460D46052D01D0042D06D1D4F82E
:102910008010486C80470A20207007E0062D05D102
:102920000A202070D4F880100868804770BD70B508
:1029300092B005460C460126A0780A287AD2DFE834
:1029400000F00528375D667A97B4D1DB082221466E
:10295000284600F08FFCD8B994F82910A1712846B8
:1029600002F04FFB0120A070A0790021CDE90010FA
:10297000617900231A46284600F0E4F9A079002185
:10298000CDE90010217900231A46284600F0DAF933
:10299000B5E012222146284600F06CFC38B9D4F884
:1029A0008000C16904F1220088470220A070A6E0DF
:1029B00001222146284600F093FDF0B90220FFF7DE
:1029C00096FD0120A41CA077D4F87E10086A8047E9
:1029D00003202070002000900190A27FA178034680
:1029E000284600F0AFF9002000900190A27FA41EBD
:1029F00061790346284600F0A5F980E009222146C6
:102A0000284600F008FD08B90420A07077E0E28EA7
:102A10002146284600F0FFFC58B9D4F8800004F1A4
:102A2000500204F13E01436A04F134009847052046
:102A3000A07064E062E094F8300088B1FF2000905C
:102A400094F8302002AB2146284600F02BFD70B9E7
:102A5000D4F88000816A02A888470620A07006E0AA
:102A6000D4F88000816A33A088470620A07046E031
:102A700094F8310088B1FF20009094F8312002AB27
:102A80002146284600F00EFD70B9D4F88000C16AD6
:102A900002A888470720A07006E0D4F88000C16A29
:102AA00024A088470720A07029E094F8320088B15C
:102AB000FF20009094F8322002AB2146284600F017
:102AC000F1FC70B9D4F88000016B02A88847082097
:102AD000A07006E0D4F88000016B16A0884708209B
:102AE000A0700CE094F839202146284600F00BFD38
:102AF00008B90920A07002E0002600E000BF00BF76
:102B0000304612B070BD3EB505460C46022002901C
:102B1000284602F07DFA30B9207820B120780228CA
:102B200001D00220207020780B286FD204E0000032
:102B3000880000204E2F4100DFE800F006109CB412
:102B40004D697B87598C8D00284602F061FA20B1CF
:102B5000012020706420FFF7CAFCA4E0D4F88010A4
:102B6000886880470021284600F032F96071802192
:102B7000284600F02DF92071284602F042FA48BBA1
:102B8000D4F88010C8688047284602F030FAC1B2F5
:102B900021200155042020702122105DD4F88020CE
:102BA00091698847A0790021CDE900102120035DBB
:102BB00094F820202179284600F077F8A0790021A8
:102BC000CDE900102120035D94F82020617928468A
:102BD00000F06BF867E021462846FFF7A8FE28B909
:102BE000D4F88010486B8047082020705BE0D4F850
:102BF0008010886B8047012807D1E06F214602686A
:102C00002846904708B9052020704CE04AE0E06F64
:102C1000214682682846904702909DF8080010B926
:102C20000620207004E09DF808102046FFF768FE9B
:102C300039E0E06F2146C2682846904702909DF82F
:102C400008102046FFF75CFE2DE021462846FFF7DE
:102C500047FD28E027E021462846FFF702FDD4F88B
:102C6000801048688047E06F04F1200142682846E0
:102C7000904718E0D4F8801008698047214628461C
:102C8000FFF7EFFCD4F8801048688047E06F04F14C
:102C90002001426828469047284600F0BBF80020F3
:102CA000207000E000BF00BF3EBD2DE9F0470446A4
:102CB0000D4617461E46DDE9088904F28C5010F8CF
:102CC000150000F07F0104F56B7000EB45104170BA
:102CD00004F28C5010F81500C0F3C01104F56B70AD
:102CE00000EB4510817004F56B7000EB4510077028
:102CF00004F56B7000EB451080F8058004F56B70EF
:102D000000EB4510A0F8069004F56B7000EB451041
:102D1000C670002104F56B7000EB4510017604F5D8
:102D20006B7000EB451041762EB9012104F56B70F4
:102D300000EB451001712946204601F073FE00208A
:102D4000BDE8F0872DE9F04704460D4617461E46BC
:102D5000DDE9089827B104F56B7000EB45100770AA
:102D600004F56B7000EB4510C088404508D0B8F101
:102D7000000F05D004F56B7000EB4510A0F806803D
:102D800004F56B7000EB4510C078B04205D026B159
:102D900004F56B7000EB4510C6702946204601F023
:102DA00041FE0020BDE8F0870246002100BF0AE096
:102DB00002F28C5030F8110000F4004008B90846C7
:102DC0007047481CC1B20829F2DB4FF6FF70F7E7E5
:102DD00070B505460E462846FFF7E6FF04464FF657
:102DE000FF70844205D046F4004105F28C5020F873
:102DF0001410E0B270BD0246082909DA02F28C50C4
:102E000030F81100C0F30E0302F28C5020F811309C
:102E1000002070470246022106E0002302F28C5097
:102E200020F81130481CC1B20829F6DB0020704799
:102E300010B50346187858700720187099609A8169
:102E400001241C77002010BD2DE9F04180460C467E
:102E500015461E460127E078012802D0022820D11D
:102E600008E0324629462046FFF7E2FF0220E070E4
:102E7000012717E0207F0D2805D10120E0700021F7
:102E8000217700270CE0207F0B2803D10120E07080
:102E9000022705E0207F0C2802D10120E0700327E3
:102EA00000E000BF00BF3846BDE8F08170B50546C0
:102EB0000E461446002105F56B7000EB441081703E
:102EC000032105F56B7000EB4410017205F56B7082
:102ED00000EB4410C660082105F56B7000EB441050
:102EE00001612146284602F0B4F8C0B270BD2DE958
:102EF000F04105460F4616461C46002105F56B704D
:102F000000EB4410817005F56B7000EB4410C76056
:102F100005F56B7000EB441006612EB9012105F533
:102F20006B7000EB4410417605F56B7000EB4410BC
:102F3000407E30B9002105F56B7000EB4410017242
:102F400005E0022105F56B7000EB4410017221468B
:102F5000284602F07EF80020BDE8F0812DE9F0411E
:102F600005460E4617461C46012105F56B7000EB21
:102F700044108170022105F56B7000EB4410017262
:102F800005F56B7000EB4410C66005F56B7000EB47
:102F9000441007612146284602F05BF80020BDE896
:102FA000F0812DE9F04105460E4617461C460021EA
:102FB00005F56B7000EB4410817005F56B7000EB4C
:102FC0004410C66005F56B7000EB4410076105F511
:102FD0006B7000EB4410407E28B905F56B7000EB78
:102FE0004410017205E0022105F56B7000EB4410FE
:102FF00001722146284602F02CF80020BDE8F0813D
:103000002DE9F04105460E4617461C46012105F5FF
:103010006B7000EB4410817005F56B7000EB441091
:10302000C66005F56B7000EB4410076105F56B7029
:1030300000EB4410007E30B9002105F56B7000EB09
:103040004410017205E0022105F56B7000EB44109D
:1030500001722146284601F0FCFF0020BDE8F08106
:103060002DE9F04105460E4617461C46012105F59F
:103070006B7000EB4410817005F56B7000EB441031
:10308000C66005F56B7000EB4410076105F56B70C9
:1030900000EB4410007E30B9002105F56B7000EBA9
:1030A0004410017205E0022105F56B7000EB44103D
:1030B000017205F56B7000EB4410007E80F0010199
:1030C00005F56B7000EB441001762146284601F0AF
:1030D000C0FF0020BDE8F0812DE9F04105460E4615
:1030E00017461C46002105F56B7000EB44108170FB
:1030F00005F56B7000EB4410C66005F56B7000EBD6
:103100004410076105F56B7000EB4410007E28B990
:1031100005F56B7000EB4410017205E0022105F526
:103120006B7000EB4410017205F56B7000EB4410FE
:10313000007E80F0010105F56B7000EB4410017614
:103140002146284601F085FF0020BDE8F0812DE9E9
:10315000F04105460E4617461C46012105F56B70E9
:1031600000EB4410817005F56B7000EB4410C660F5
:1031700005F56B7000EB44100761002105F56B70DD
:1031800000EB441001722146284601F062FF002046
:10319000BDE8F0812DE9F04105460E4617461C4674
:1031A000002105F56B7000EB4410817005F56B7024
:1031B00000EB4410C66005F56B7000EB441007612E
:1031C00005F56B7000EB441001722146284601F0B2
:1031D00040FF0020BDE8F08110B50B7803704B78FC
:1031E00043708C78CB7804EB032343800B79037115
:1031F0004B7943718B798371CB79C371082A16DDC2
:103200000C7A4B7A04EB032303818C7ACB7A04EBA0
:10321000032343810C7B4B7B04EB032383818B7B58
:103220008373CB7BC3730B7C03744B7C437410BDE3
:103230002DE9F04780460C4616461D46DDE9089705
:1032400046F08001217506216175E58205F47F4015
:10325000B0F5407F03D140F20941218301E0002114
:10326000218367833B464A4621464046FFF7ECFDF3
:10327000BDE8F0872DE9FC4104460D46164604F5ED
:1032800088704FF4807300222946CDE9000620465D
:10329000FFF7CEFF071E06D1324604F5887105F10F
:1032A0002200FFF799FF3846BDE8FC810A780270DA
:1032B0004A7842708A788270CA78C2700B794A79EB
:1032C00003EB022282808A79827170470A78027049
:1032D0004A7842708A788270CA78C2700A7902711C
:1032E0004A7942718A798271CA79C2710A7A027204
:1032F000704710B502460B88147823440B8013786E
:10330000981810BD2DE9F04F85B0064689469246C3
:103310001D462C460027B84600BF287830706878D4
:103320007070A978E87801EB0020708028793071FE
:1033300068797071A879B071E879F071287A307283
:103340000E98092864DD09200090307902285ADCA3
:10335000BB4653E069462046FFF7CBFF0446607842
:1033600004284BD1A07847B207EBC70000EB090B4C
:10337000E078032842DA214602A8FFF7A7FF4FF0C2
:1033800000089DF80C00022838DC32E0694620462F
:10339000FFF7AFFF0446607805282AD10AEB071033
:1033A00000EBC80001907F480078B84206D07D4904
:1033B0000F7002A95846FFF789FF0CE02179607968
:1033C00001EB002078490988884200DA15E002A95B
:1033D0005846FFF77BFF21460198FFF767FF2179E9
:1033E000607901EB00207049088008F101004FFA74
:1033F00080F89DF80C004045C8DC00BF7088BDF81F
:1034000000108842A6DC00206749088065490870E2
:1034100005B0BDE8F08F2DE9FC4104460D46164687
:10342000002704F588704FF4007300222946CDE987
:1034300000062046FFF7FCFEB0F1000814D106E0BC
:1034400004F58870C05D5949C855781C87B2B742E9
:10345000F6DB04F5887305F1500205F13E0105F134
:1034600034000096FFF74EFF4046BDE8FC8130B5C2
:1034700013464578032D14D10578AD1E9D4202DC1C
:103480000578AD1E00E01D46ACB2801C002204E0B1
:10349000855C0D70491C951CAAB2A242F8DB002580
:1034A0000D7030BD2DE9FC470446884615461E4682
:1034B0000A9F04F5887045F4407300224146CDE927
:1034C00000072046FFF7B4FEB0F1000905D13A46E7
:1034D000314604F58870FFF7CAFF4846BDE8FC870F
:1034E00070B506460C46154600212175052161750B
:1034F000E58200212183618300231A46214630465C
:10350000FFF7A2FC70BD70B506460C4615460021BB
:10351000217509216175E5820021218361830023E2
:103520001A4621463046FFF78FFC70BD2DE9F04169
:1035300007460C4615461E46012121750B21617573
:10354000E68225830021618300231A4621463846FE
:10355000FFF77AFCBDE8F0812DE9F04105460C4605
:1035600016461F4602212175012161750021E18265
:103570002683618306F08000802805D105F56B70F5
:1035800000EB4710017605E0002105F56B7000EBBC
:103590004710417600231A4621462846FFF754FC7F
:1035A000BDE8F0818C0000208A000020D821002096
:1035B00010B50446204601F02BFD48B1F848F94902
:1035C0000860F9484860002048730120F749C87036
:1035D0000020F7490860F749087010BD2DE9F04157
:1035E00005460E461446012714B1012C12D108E0FD
:1035F000F1480378C27831462846FFF7ADFF074609
:1036000009E0ED484378827831462846FFF7A4FF69
:10361000074600E000BF00BFE5480068401CE449E1
:10362000086008460068042800D904273846BDE829
:10363000F0812DE9F04105460F4600260124284679
:1036400001F0E6FC20B3DC480178284601F0EEFCEE
:1036500006460D2E01D002241CE0D8480068D84947
:10366000884216D1D5484068CE494968884211D170
:10367000D248007B08B900240CE0D048007B012828
:1036800001D1012406E0CD48007B022802D10224AA
:1036900000E00224C548C4732046BDE8F0812DE94E
:1036A000F047804689460024404601F0B1FC0028DE
:1036B0007ED0BE48007909287BD2DFE800F07A0589
:1036C0001251A3FEFDFCFB00BB4843781F22B54905
:1036D0004046FFF766FC0120B4494871022008719A
:1036E0008BE1B5484178404601F09BFC0446012C33
:1036F00026D10020AE4908600220AC494871A94893
:10370000007B00F08007A7488068A8B1A5488068C2
:10371000AC490860A5488068AB4908600846006865
:10372000AA490860802F03D10320A049087116E040
:1037300004209E49087112E005209C4908710EE0A2
:10374000022C04D1994840799849087107E0042C6B
:1037500005D101209E4908700820944908714CE168
:1037600095480178404601F05CFC0446012C03D0EA
:103770008E48407903283AD000208D490860032004
:103780008A4948718C4880888E490968884219D2D4
:103790008948037882888C4801684046FFF730FCEE
:1037A0008548808887490968081A8649086001E0C9
:1037B00024E121E1804880888349096808448249DE
:1037C00008601EE07F48006818B905207749087135
:1037D00017E0794803787B48008882B27A4801680C
:1037E0004046FFF70DFC00207649086009E0042CF4
:1037F00007D100207649087007206C490871052020
:103800004871FAE06C484178404601F00AFC0446F1
:10381000012C3BD1002066490860042063494871AF
:103820006548C0886749096888421AD26248437867
:10383000C288654801684046FFF7B3FB62480068EC
:10384000624908605C48C0885F49096808445E496D
:1038500008605948C0885B490968081A59490860D6
:1038600042E05848006818B90520504908713BE00B
:10387000514843785348008882B253480168404613
:10388000FFF78FFB00204F4908602DE0022C21D16B
:103890004D4800684D490968884212D0464843782F
:1038A000C288C088DFF820C1DCF800C0ACEB0001A2
:1038B000404603E08EE058E036E016E0FFF771FB8B
:1038C00012E03D484378C2883F4801684046FFF710
:1038D00068FB09E0042C07D101203D49087008204D
:1038E000324908710520487187E005202F49487149
:1038F000324888603F2088810D2604E000202F494F
:103900008855701EC6B2002EF8D100202B490870D1
:103910002948037825483F2281684046FFF770FB1D
:1039200006202249087168E023480178404601F0EA
:1039300078FB0446012C0FD100201D4908600520AA
:103940001A49487108468078087049464046FFF792
:1039500070FE1649C87307E0042C05D100201C49ED
:10396000087007201149087147E000224946404687
:10397000FFF734FE054665B915480078022803D1E3
:1039800008200A49087109E0084840790749087188
:1039900004E0042D02D102200449C8732DE0000088
:1039A00055534243D82300205040302008240020A3
:1039B00090000020AC00002018240020F8230020F4
:1039C0005553425394000020980000209C00002092
:1039D000A0000020012249464046FFF7FFFD0546B2
:1039E00025B9074840790649087104E0042D02D141
:1039F00002200349C87300E000BF00BFBDE8F087A4
:103A0000082400207CB506460D462C4694F8430059
:103A1000082856D194F84500502852D194F8520005
:103A200000F0800038B194F85200C549C870B4F86D
:103A30005400888006E094F85200C1498870B4F8B8
:103A40005400C88094F85A0000F0800038B194F80F
:103A50005A00BB49C870B4F85C00888006E094F84E
:103A60005A00B7498870B4F85C00C880B4488178BF
:103A70003046FFF7ADF9B24948700846C178304684
:103A8000FFF7A6F9AE4908700846C0880221CDE9C3
:103A900000102120035D94F82020A9484178304689
:103AA000FFF703F9A64880880221CDE90010212004
:103AB000035D94F82020A24801783046FFF7F5F81E
:103AC00003E0D4F88010086C804700207CBD70B5FE
:103AD00004460D469A48407860B19948417820469E
:103AE00001F0B7F9964841782046FFF784F90020A5
:103AF000934948709248007860B191480178204617
:103B000001F0A7F98E4801782046FFF774F90020EC
:103B10008B49087070BD10B5024600200023894C07
:103B2000237010BD012812D187490978491C864AA3
:103B30001170114609780A2905DA0621814A1170A7
:103B40000121D1700AE00A217E4A117006E00228A4
:103B500003D10A217B4A117000E000BF704770B5A5
:103B600005460C46A1212175FE2161750021E182E7
:103B70002183012161830123714A083221462846AD
:103B8000FFF762F970BD70B505460C46212121751D
:103B9000FF2161750021E1822183618300231A46A0
:103BA00021462846FFF750F970BD2DE9F0478146C0
:103BB0000F463E46012403254FF00008484601F019
:103BC00027FA002878D05F4800780B2875D2DFE804
:103BD00000F0060D1E5566798A999E44B00048464D
:103BE000FFF7E6FC012057490870A5E03946484632
:103BF000FFF7C9FF044614B9022052490870032C8C
:103C000004D102204F4948700920087094E03946D9
:103C10004846FFF7A4FF0446BCB94948007A484922
:103C200081F80802084690F8080200280ADD474893
:103C3000007838B9012045490870D6F88010086C22
:103C4000804779E003203F490870032C04D103200A
:103C50003C494870092008706EE0737900223946AB
:103C60004846FFF779FC04463CB90020344981F806
:103C7000080234484078334908705DE0484600F057
:103C8000EBF805463DB904202E49087000202E4966
:103C90000870002402E02846FFF744FF4CE0484645
:103CA00000F02BF905464DB9052026490870002083
:103CB00025490870002404E03FE03CE02846FFF777
:103CC00031FF39E0484600F07DF905463DB908204E
:103CD0001C49087000201C490870002402E0284696
:103CE000FFF720FF28E0484600F0CCF905462DB943
:103CF0001448407813490870002402E02846FFF772
:103D000011FF19E039464846FFF7C9FC14E0D6F820
:103D10008010C86B804700F0FF08B8F1000F03D196
:103D200008200849087003E0B8F1010F00D106240B
:103D300002E0042400E000BF00BF2046BDE8F08799
:103D40001824002008240020AC000020C00000201F
:103D500010B504463D4801F05BF928B13C480078B5
:103D600020F001003A4908703948007810BD01463A
:103D700009B10120704736480078FBE72DE9F04192
:103D800005460F4690461C46002605B914B9042086
:103D9000BDE8F0812E48007800F0010008B1032052
:103DA000F6E72A4801F034F998B100BF63024246B1
:103DB0003946264800F03BFA064626492348FFF7D5
:103DC0006EFC224801F024F908B90120E0E7032E37
:103DD000ECD00EB90020DBE70120D9E72DE9F04156
:103DE00005460F4690461C46002605B914B9042026
:103DF000BDE8F0811648007800F0010008B103200A
:103E0000F6E71348007800F0040008B10220EFE75D
:103E10000E4801F0FDF898B100BF630242463946F2
:103E20000A4800F097F906460A490848FFF737FCA8
:103E3000064801F0EDF808B90120D9E7032EECD0CF
:103E40000EB90020D4E70120D2E700004015002081
:103E5000C1000020EC1A002070B505460326284654
:103E600001F0D6F8002846D0FB48C078012802D0DF
:103E700002283ED124E00020F8498860087306201B
:103E80008873F748F44988603F2088810320887050
:103E9000102405E00021F1480F300155601EC4B226
:103EA000002CF7D10020ED49C8730120EA490871C0
:103EB000072008700320C8730220C870032619E089
:103EC000E548C07B20B90120E349C87000260FE017
:103ED000E148C07B012803D1DF49C870012607E013
:103EE000DD48C07B022803D10120DB49C8700226CF
:103EF00000E000BF00BF304670BD70B50546032628
:103F0000284601F085F800285AD0D348C078012807
:103F100002D0022852D123E00820D04988608020B6
:103F200008730A208873CF48CB49886004208870C2
:103F3000102405E00021C9480F300155601EC4B2AD
:103F4000002CF7D12520C549C8730120C24908714A
:103F5000072008700320C8730220C87003262EE0D3
:103F6000BD48C07BC8B9BF480078BF49C870BD48CC
:103F700040788870BB4880784870BA48C07808702C
:103F8000B8488179B8484172B648C079B6490872D4
:103F90000120B149C87000260FE0AF48C07B01285E
:103FA00003D1AD49C870012607E0AB48C07B0228A9
:103FB00003D10120A849C870022600E000BF00BF5D
:103FC000304670BD70B505460326284601F020F83E
:103FD000002855D0A048C078012802D002284DD131
:103FE00027E03F209D498860802008730A2088735D
:103FF0009C489949886005208870102405E00021BC
:1040000096480F300155601EC4B2002CF7D11A201B
:104010009249C8733F2191484174C17401208E496F
:104020000871072008700320C8730220C870032697
:1040300025E08948C07B80B98A48807800F08000FC
:1040400018B101208849087302E0002086490873EE
:1040500001208149C87000260FE07F48C07B0128FD
:1040600003D17D49C870012607E07B48C07B022848
:1040700003D101207849C870022600E000BF00BFCC
:10408000304670BD70B505460326284600F0C0FFD7
:1040900000285DD07048C078012802D0022855D190
:1040A0002BE03F206D498860802008730A208873C8
:1040B0006C48694988600846807848700620887096
:1040C000102405E0002165480F300155601EC4B280
:1040D000002CF7D103206149C87300215F480174A7
:1040E0003F21C17401205C4908710720087003203A
:1040F000C8730220C870032629E05748C07BA0B9C6
:10410000584801785848C1715648417856488171DD
:1041100054488178544841715248C07852490871D6
:1041200001204D49C87000260FE04B48C07B012894
:1041300003D14949C870012607E04748C07B0228DF
:1041400003D101204449C870022600E000BF00BF2F
:10415000304670BD2DE9FF4182B007460E461D4630
:104160004FF00308384600F053FF00285BD03A4870
:10417000C078012802D0022853D138E03748856042
:104180000020364908730A2088733348866010245B
:1041900005E0002131480F300155601EC4B2002CEB
:1041A000F7D12A202D49C8739DF813102B4841746C
:1041B0009DF8121081749DF81110C1749DF81010B3
:1041C0000175C5F34F2001909DF8051023488175B6
:1041D0009DF80410C17501201F490871072008705F
:1041E0000320C8730220C8704FF003081AE01A4871
:1041F000C07B28B901201849C8704FF000080FE0B3
:104200001548C07B012802D11349C87008E0124844
:10421000C07B022804D101200F49C8704FF002086A
:1042200000E000BF00BF404606B0BDE8F081FFB52A
:1042300081B007460E461D4603200C4908703846DB
:1042400000F0E6FE002876D00348C07801280FD0A1
:1042500002286ED146E0000008240020D823002068
:10426000F82300203426002024260020C20000204D
:10427000334885608020324908730A2088733148AA
:104280008660102405E000212D480F300155601E86
:10429000C4B2002CF7D128202949C8739DF80F100B
:1042A000274841749DF80E1081749DF80D10C1745B
:1042B0009DF80C100175C5F34F2000909DF801107A
:1042C0001F4881759DF80010C17501201D490871B6
:1042D000072008700320C8730220C87003201A4901
:1042E000087027E01748C07B50B9384600F090FEB0
:1042F00030B101201349C87000201349087015E03F
:104300001048C07B012807D1384600F081FE18B163
:1043100001200C49C87009E00A48C07B022805D179
:1043200001200849C87002200749087002E002E035
:10433000FFE700BF00BF0448007805B0F0BD0000F3
:10434000D823002008240020C200002008B5002146
:104350000091491EC26851606FF08041C26851618E
:10436000009921F0004101F100410091009921F4F0
:10437000006101F5006100910099C268916108BD7A
:10438000F8B50446002600250020009000BF032059
:10439000FEF7A6F8E06800690090681C0546F94938
:1043A000884201D90020F8BD0098C00F0028EED047
:1043B0000025009820F00100401C00900098E16862
:1043C000086100BFE06800690090681C0546ED497F
:1043D000884200D904E0009800F001000028F1D1E3
:1043E00000BF0320FEF77CF83046DCE72DE9F04102
:1043F00004460026E078B0B900270020DD1C4FEA13
:10440000E57805EB98784FEAA80704F1D00555F850
:1044100022C000BF04E00D68CCF80050401C091D0C
:10442000B842F8D300BF3046BDE8F081F0B503468E
:104430000024D01CC71700EB9777BD10D3F8D060CD
:1044400000BF03E030680860641C091DAC42F9D36A
:104450000846F0BD70B502460C460023002000253A
:10446000D5700125957040259580012C0CD14FF019
:10447000A0430125D57208251570042555709D159A
:10448000D580022515720EE06CB9BF4B0025D572A0
:104490000C251570062555704FF4A065D5800225B2
:1044A00015720125D570D36003F5006515610021F3
:1044B00010E003F5106505EB411602F1180545F80B
:1044C000216003F5306505EB411602F1540545F80E
:1044D0002160491C55788D42EBD803F58065556104
:1044E0004035C2F8CC50002108E003F5A06505EB8B
:1044F000411602F1900545F82160491C15788D425E
:10450000F3D8002108E003F5805505EB013602F1F0
:10451000D00545F82160491C15788D42F3D803F584
:104520006065C2F80C5170BD3EB504460025002000
:10453000029001900090207A012843D1E068806BBE
:104540000190019820F480300190607A28B10198A0
:1045500020F4801000F5801001900198E1688863D4
:1045600000200290E068C0680290029820F04000AD
:104570000290029820F4801000F5801002900298BA
:1045800020F480000290029820F4003002900298FB
:1045900020F4002002900298E168C8602046FFF7EE
:1045A000EFFEE078012843D1009820F01E000A3089
:1045B0000090009820F02000203000900098E168E2
:1045C000886035E0E068C0680290029820F0400002
:1045D000403002900298E168C8602046FFF7D0FEA4
:1045E00000200190019820F4803000F58030019087
:1045F000019820F4802000F580200190019820F49B
:10460000002000F500200190019820F4001000F532
:1046100000100190607A28B1019820F4801000F514
:10462000801001900198E16888631420FDF75FFF16
:10463000E07801280FD1E06880680090009820F0B1
:104640001E000A300090009820F0200020300090DA
:104650000098E168886028463EBD08B50146002004
:1046600000220092009A22F00102521C0092CA68B5
:104670009268009B1A43CB689A6008BD08B5014652
:10468000002000220092009A22F00102521C0092A7
:10469000CA689268009B9A43CB689A6008BDF8B5D7
:1046A00004460D460026002700200090009820F0C8
:1046B000200020300090009865F38A100090009848
:1046C000E168086100BFE06800690090781C074657
:1046D0002C49884200D904E00098C0F3401000281B
:1046E000F1D100BF0320FDF7FBFE3046F8BDF8B561
:1046F00004460025002600200090009820F01000BD
:10470000103000900098E168086100BFE06800691F
:104710000090701C06461B49884200D904E00098AE
:10472000C0F300100028F1D100BF0320FDF7D8FE30
:104730002846F8BDF8B504460D460026E068C06876
:104740000090009820F000500090009820F08040E9
:104750000090012D06D1009820F0005000F100508B
:10476000009006E02DB9009820F0804000F18040D4
:1047700000900098E168C8603220FDF7B8FE30462E
:10478000F8BD0000400D0300000004400146C86869
:10479000406900F00100704700B502461046FFF77F
:1047A000F5FF012801D0012000BD0020FCE700B585
:1047B00002461046FFF7EAFF012800D100BD0020A5
:1047C000FCE701460020CA685069CA689269104037
:1047D00070470146C8684068704738B504460025F0
:1047E00000200090E1688861401EE1684861204631
:1047F000FFF7ACFDE07820B9009820F010001030F1
:104800000090009820F0807000F180700090009877
:1048100020F0007000F100700090009820F000502F
:1048200000F100500090009820F00800083000903F
:10483000009820F4001000F500100090E0688069F6
:10484000009988430843E1688861284638BD08B567
:104850000146D1F8CC0000680090009820F00400D8
:104860000090009820F002000090009820F00800CE
:104870000090009820F020000090009808BD38B506
:1048800005460C460020009021462846FDF7DEFD37
:104890002846FFF7DCFF00900098C0F3003058B9BD
:1048A000012C09D1009820F4805000F58050009030
:1048B0000099D5F8CC0001600098C0F3003040B1F9
:1048C0003CB9009820F4805000900099D5F8CC00B5
:1048D0000160C820FDF70BFE38BD38B50446204600
:1048E000FFF7B5FF0090009820F4807000F580700D
:1048F00000900099D4F8CC0001600A20FDF7F7FD84
:10490000009820F4807000900099D4F8CC000160E9
:104910001420FDF7ECFD012038BD08B5426912688E
:104920000092009A61F301020092009B42691360B9
:1049300008BDFEB504460026002500200290019027
:1049400000902046FDF783FD0021D4F80C010160A2
:10495000207A012803D12046FFF7DFFF03E0012181
:104960002046FFF7DAFF2046FFF7B7FF60690068CF
:104970000090009820F004000090009960690160A8
:10498000E07A00BB4FF40070E168486202986FF370
:104990000F0000F500700290029880B200F1807064
:1049A00002900298E168886201986FF30F0000F5A9
:1049B00040700190019880B200F1807001900198E0
:1049C000E168C1F8000110212046FFF768FE20468B
:1049D000FFF78DFE00250DE04FF0FF3104F1900050
:1049E00050F825008160002104F1900050F8250066
:1049F000C1606D1C2078A842EED801212046FFF747
:104A00003EFF2046FFF7E9FE3046FEBD01464869FD
:104A1000806800F0010080F001007047014648699D
:104A2000406970473FB502460020002300240294ED
:104A300003940194441E009402F1900454F8214020
:104A4000009DA56000240394D478012C04D1039C1C
:104A500024F00404241D039402F56B7404EB411448
:104A6000647934B1012C6AD0022C03D0032C38D1E4
:104A700038E000BF039C24F00104641C0394039CF1
:104A800024F0080408340394039C24F08004803448
:104A90000394039C24F4806404F580640394039CD1
:104AA00024F010041034039402F56B7404EB4114E9
:104AB000A47834B1039C24F4807404F580740394C6
:104AC0000FE0039C24F040044034039402F56B741F
:104AD00004EB4114247924B1039C24F020042034F5
:104AE00003944EE0039C24F00104641C0394039C93
:104AF00024F0100410340394039C24F008040834B8
:104B00000394039C24F0800480340394039C24F4D5
:104B1000806404F580640394039C24F4007404F519
:104B20000074039402F56B7404EB4114A4782CB167
:104B3000039C24F4807404F58074039421E0039CA6
:104B400024F00104641C0394039C24F4007404F511
:104B500000740394039C24F020042034039402F591
:104B60006B7404EB4114A47854B1039C24F08004CA
:104B700080340394039C24F4807404F580740394BB
:104B800000BF00BF02F1900454F82140039DE5608E
:104B9000012404FA01F35469A4691C435569AC610A
:104BA000029C24F0007404F100740294D468A46997
:104BB000029D2C43D568AC610024019402F56B740E
:104BC00004EB41142578019C65F39C54019402F593
:104BD0006B7404EB41146578019C65F3CE24019459
:104BE00002F56B7404EB4114A578019C65F3CF3496
:104BF000019402F56B7404EB4114E478022C01D1AA
:104C0000012500E00025019C65F35144019402F563
:104C10006B7404EB41146579019C65F39344019432
:104C200002F56B7404EB4114E588019C65F30A04FA
:104C3000019402F56B7404EB41146479032C05D1E3
:104C4000019C24F0005404F10054019402F19004FA
:104C500054F82140019D256004B030BD2DE9F0439A
:104C600088B004460D464FF00009C8464FF48077DF
:104C7000002006900790009004F56B7000EB451043
:104C8000006910B304F56B7000EB4510016904F581
:104C90006B7000EB4510C0880144491E04F56B7031
:104CA00000EB4510C088B1FBF0F086B2BE420DDDCE
:104CB0003E4604F56B7000EB4510C188714304F566
:104CC0006B7000EB4510016100E0012604F56B708C
:104CD00000EB4510807850B104F56B7000EB451087
:104CE000C188714304F56B7000EB4510016104F558
:104CF0006B7000EB45100169069861F31200069095
:104D0000069866F3DC40069004F56B7000EB4510E6
:104D1000017A069861F35E70069004F1900050F8F5
:104D2000250006990161E078012809D104F56B702E
:104D300000EB4510C16804F1900050F82500416176
:104D400004F1900050F82500006807902046FFF716
:104D50005DFE079960F35D710791079820F00040B0
:104D600000F100400790079820F08040079004F180
:104D7000900050F8250007990160E078002864D180
:104D800004F56B7000EB4510807800285DD104F5C8
:104D90006B7000EB45100069002856D004F56B706D
:104DA00000EB4510407930B1012821D0022803D012
:104DB000032839D11BE000BFE068C06A039004F506
:104DC0006B7000EB45100069C01CC0F38F0803989E
:104DD00080B240450ADA009820F020002030009090
:104DE000E068806900990843E16888611DE000BFC0
:104DF00060690069019004F56B7000EB4510006973
:104E0000C01CC0F38F08019880B240450BDA0098AF
:104E100020F0806000F180600090E0688069009977
:104E20000843E168886100E000BF00BF04F56B70D3
:104E300000EB4510008A83B204F56B7000EB45105F
:104E40002A46C1682046FFF7D1FA484608B0BDE8B7
:104E5000F08310B586B0024600200023039301932F
:104E600002F1900353F821301B680093009B23F05C
:104E7000004303F100430093009B23F0804303F1C0
:104E800080430093009BC3F3814323B1009BC3F392
:104E90008143022B0BD1D368DB6A0393039BC3F3DB
:104EA00007437BB9009B23F0004300930AE053695A
:104EB0001B690193019BC3F307431BB9009B23F0BC
:104EC0000043009302F1900353F82130009C1C60D2
:104ED00006B010BD1CB50246002000230093009BC5
:104EE00023F0004303F1004300930124009B64F38B
:104EF000DC43009302F1900353F82130009C1C61C5
:104F000002F1900353F821301B680193019B23F0B9
:104F1000004303F100430193019B23F0804301937D
:104F200002F1900353F82130019C1C601CBD38B580
:104F30000446002160698161491E60694161002564
:104F40001AE004F1900050F82500006800900098E5
:104F500020F000400090009820F0804000F1804058
:104F60000090009820F40040009004F1900050F868
:104F70002500009901606D1C2078A842E1D82046E8
:104F8000FFF7B5FB10212046FFF789FB38BD70B550
:104F900004460E4600250021C4F8101300BF0BE0A4
:104FA000002104F5457040F825103C3040F82510EC
:104FB0003C304155681CC5B20F2DF1DB0821A4F827
:104FC000B21331462046FFF745FA2046FFF756FB5D
:104FD0002046FFF7A9FA01212046FFF7ABFB204648
:104FE000FFF7A7FC2046FFF738FB002070BD08B58F
:104FF0000146D1F8CC00006800900098C0F3414011
:1050000008BD10B504462046FFF767FC002010BD20
:105010000146D1F81003704701464869806880B2A4
:105020007047024602F29B30405C7047024602F530
:10503000547050F821007047024602F56370405CDE
:10504000704770B504460D4629462046FFF7EAFC36
:1050500070BD70B504460D46002104F29B304155E9
:10506000113000EB4510416129462046FFF7F6FD5F
:1050700070BD00000CB50146D1F8900000680090AA
:10508000009820F0004000F100400090009820F0CF
:10509000804000F180400090009AD1F890000260BA
:1050A00000200190019820F4001000F500100190FC
:1050B0000198CA68506101200CBD38B50446002033
:1050C0000090FE480068816820468847009820F0DC
:1050D000005000F1005000900098E1684861012004
:1050E00038BDFEB504460026002500200090029041
:1050F0000190D4F8CC0000680290D4F8CC0000688D
:105100000190019820F004000190019820F0020025
:105110000190019820F008000190019820F02000F3
:1051200001900298C0F3400058B1019820F00200AD
:10513000801C0190E148006841682046884745F09E
:1051400001050298C0F3C000002842D0019820F069
:105150000800083001900298C0F38000002838D081
:10516000D64800684168204688470298C0F341400D
:10517000022804D00298C0F34140012828D1606978
:10518000006800900298C0F34140022811D141F21A
:10519000707160694160009800F00300022818D027
:1051A000207A022803D102212046FFF7B6FB012610
:1051B0000FE04BF6803160694160009800F0030019
:1051C000012806D001212046FFF7A7FB012600E0B9
:1051D00001260298C0F3401030B1019820F0200061
:1051E0002030019045F0010516B12046FFF775FB10
:1051F0000199D4F8CC0001602846FEBD7FB5054674
:105200000C4605F1900050F82460B0680390F068F7
:105210000290DDE902100840039005F1900050F87B
:105220002400006801900398C0F38000D0B10020F2
:105230000090009820F00400001D00900098B060DD
:1052400005F1900050F82400C0680090009820F00C
:105250000200801C009005F1900050F82400009995
:10526000C160B4E10398C0F3401048B10020009041
:10527000009820F02000203000900098B060A6E157
:105280000398C0F34020F8B105F1900050F82400D5
:10529000C0680090009820F00200801C009005F18A
:1052A000900050F824000099C160E1B22846FFF751
:1052B000D0FD00200090009820F4007000F50070F0
:1052C00000900098B06082E1039800F0010038B3CC
:1052D000002105F5457040F8241005F1900050F8C4
:1052E0002400C0680090009820F00200801C00900C
:1052F00005F1900050F824000099C160E1B2284601
:10530000FFF7A7FD00200090009820F00100401C4E
:1053100000900098B060012105F56370015556E1D9
:105320000398C0F3C00010B300200090009820F054
:105330000800083000900098B06005F1900050F827
:105340002400C0680090009820F00200801C0090AB
:1053500005F1900050F824000099C160E1B22846A0
:10536000FFF777FD052105F5637001552FE10398DF
:10537000C0F3001038B3002105F5457040F8241043
:1053800005F1900050F82400C0680090009820F0CB
:105390000200801C009005F1900050F82400009954
:1053A000C160E1B22846FFF754FD0020009000984C
:1053B00020F01000103000900098B060032105F537
:1053C0006370015503E10398C0F3C01040B305F1C9
:1053D000900050F82400C0680090009820F002006F
:1053E000801C009005F1900050F824000099C160E5
:1053F000E1B22846FFF72DFD05F5457050F8241061
:10540000491C40F8241006217830015500200090F6
:10541000009820F08000803000900098B060D6E0C6
:105420000398C0F3801038B3002105F5457040F8AB
:10543000241005F1900050F82400C06800900098F6
:1054400020F00200801C009005F1900050F824002C
:105450000099C160E1B22846FFF7FBFC00200090F4
:10546000009820F04000403000900098B060042187
:1054700005F563700155AAE00398C0F3802078B366
:1054800005F1900050F82400C0680090009820F0CA
:105490000200801C009005F1900050F82400009953
:1054A000C160E1B22846FFF7D4FC002000900098CC
:1054B00020F0100010300090009801E084000020DF
:1054C000B060082105F56370015500200090009838
:1054D00020F4806000F5806000900098B06076E075
:1054E000FFE70398C0F34000002870D005F190005A
:1054F00050F82400C0680090009820F0020000904E
:1055000005F1900050F824000099C16005F5637022
:10551000005D012815D1012105F29B30015501984C
:10552000C0F38140022848D105F56B7000EB4410B0
:10553000407E80F0010105F56B7000EB4410417670
:105540003BE005F56370005D032804D1022105F2FC
:105550009B30015531E005F56370005D04280FD1E3
:1055600005F56B7000EB44100079012803D1E1B21E
:105570002846FFF7AFFC022105F29B3001551CE0E5
:1055800005F56370005D052804D1042105F29B3008
:10559000015512E005F56370005D06280DD105F593
:1055A000457050F82400032807D1032105F29B30F1
:1055B00001550021873840F8241000200090009801
:1055C00020F00200801C00900098B06000BF012015
:1055D00004B070BD70B586B005460C4605F190006C
:1055E00050F82460B0680590F0680490DDE904107C
:1055F0000840059005F1900050F8240000680390E1
:10560000002004900598C0F38000D0B100200190E4
:10561000019820F00400001D01900198B06005F190
:10562000900050F82400C0680190019820F002001A
:10563000801C019005F1900050F824000199C16090
:1056400073E00598C0F3401048B100200190019824
:1056500020F02000203001900198B06065E00598AE
:10566000C0F3C00078B305F1900050F82400C06882
:105670000190019820F00200801C019005F190003B
:1056800050F824000199C160052105F563700155AA
:1056900000200190019820F0100010300190019836
:1056A000B06000200190019820F0080008300190BF
:1056B0000198B060059820F010000590E1B22846EE
:1056C000FFF7C7FB31E0FFE70598C0F3802060B328
:1056D00005F1900050F82400C0680190019820F076
:1056E0000200801C019005F1900050F824000199FF
:1056F000C160E1B22846FFF7ACFB002001900198A1
:1057000020F01000103001900198B060082105F5DC
:105710006370015500200190019820F4806000F52D
:10572000806001900198B06000BF0598C0F34020F0
:10573000F8B105F1900050F82400C068019001987C
:1057400020F00200801C019005F1900050F8240028
:105750000199C160E1B22846FFF77BFB0020019070
:10576000019820F4007000F5007001900198B0607D
:1057700042E1059800F00100002871D0E878012886
:1057800012D105F1900050F824000069029005F54F
:105790006B7000EB441000690299C1F31201411AC9
:1057A00005F5547040F82410012105F5637001558A
:1057B0000021783840F8241000200190019820F052
:1057C0000100401C01900198B0600398C0F3814033
:1057D00020B10398C0F3814002282AD105F190003E
:1057E00050F82400C0680190019820F00200801C4D
:1057F000019005F1900050F824000199C160E1B2D8
:105800002846FFF726FB00200190019820F01000A9
:10581000103001900198B06005F56B7000EB4410FA
:10582000007E80F0010105F56B7000EB44100176FD
:10583000E2E00398C0F38140032899D1039820F057
:10584000005000F10050039005F1900050F8240042
:1058500003990160012105F29B300155CCE0FFE77F
:105860000598C0F34000002851D005F1900050F891
:105870002400C0680190019820F00200019005F119
:10588000900050F824000199C16005F56370005D37
:10589000012804D1012105F29B3001552DE005F5C9
:1058A0006370005D052804D1042105F29B30015589
:1058B00023E005F56370005D062804D005F56370EC
:1058C000005D082808D1002105F5457040F8241036
:1058D00003218730015510E00398C0F3814003286D
:1058E0000BD105F56B7000EB4410007E80F00101D8
:1058F00005F56B7000EB44100176002001900198D3
:1059000020F00200801C01900198B06074E00598BE
:10591000C0F3C01040B305F1900050F82400C068F7
:105920000190019820F00200801C019005F1900088
:1059300050F824000199C16005F5457050F8241015
:10594000491C40F82410062178300155E1B2284660
:10595000FFF77FFA00200190019820F0800080304E
:1059600001900198B06047E00598C0F30010E8B3DB
:105970000398C0F38140032815D105F1900050F839
:105980002400C0680190019820F00200801C019062
:1059900005F1900050F824000199C160E1B2284659
:1059A000FFF757FA18E00398C0F3814020B103983D
:1059B000C0F3814002280FD1039820F0004000F18D
:1059C00000400390039820F08040039005F1900080
:1059D00050F8240003990160032105F56370015517
:1059E00000200190019820F0100000E004E0103049
:1059F00001900198B06000BF012006B070BD7CB579
:105A00000546002400262846FFF708F8019000BF4D
:105A10001BE0019880B20121A1400840A0B105F12E
:105A2000900050F82400006800900098C0F3C03047
:105A300028B121462846FFF7CDFD064304E0214664
:105A40002846FFF7DBFB0643641C2878A042E0D819
:105A500030467CBDFEB5044660690069009001983F
:105A6000C0F3C30104F56B7000EB41100069C01C6A
:105A7000C0F38F0674E04FF6FF71009801EA8005CD
:105A80000198C0F3C30104F56B7000EB411000698D
:105A9000A84216D20198C0F3C30104F56B7000EB65
:105AA0004110008A85B200200290029820F08060A8
:105AB00000F180600290E068806902998843E168A3
:105AC00088610198C0F3C30104F56B7000EB4110CD
:105AD0000069C01CC0F38F060198C0F3C302C0F375
